{
  "_format": "hh-sol-artifact-1",
  "contractName": "KoloFactory",
  "sourceName": "contracts/KoloFactory.sol",
  "abi": [
    {
      "inputs": [],
      "stateMutability": "nonpayable",
      "type": "constructor"
    },
    {
      "inputs": [],
      "name": "youHaveFailed",
      "type": "error"
    },
    {
      "inputs": [
        {
          "internalType": "bytes",
          "name": "_bytecode",
          "type": "bytes"
        }
      ],
      "name": "createPiggy",
      "outputs": [
        {
          "internalType": "address",
          "name": "",
          "type": "address"
        }
      ],
      "stateMutability": "nonpayable",
      "type": "function"
    },
    {
      "inputs": [],
      "name": "developerAddress",
      "outputs": [
        {
          "internalType": "address",
          "name": "",
          "type": "address"
        }
      ],
      "stateMutability": "view",
      "type": "function"
    },
    {
      "inputs": [
        {
          "internalType": "string",
          "name": "_purpose",
          "type": "string"
        },
        {
          "internalType": "uint256",
          "name": "duedate",
          "type": "uint256"
        }
      ],
      "name": "getPiggyByteCode",
      "outputs": [
        {
          "internalType": "bytes",
          "name": "",
          "type": "bytes"
        }
      ],
      "stateMutability": "view",
      "type": "function"
    },
    {
      "inputs": [
        {
          "internalType": "address",
          "name": "user",
          "type": "address"
        }
      ],
      "name": "getUserDeployedContracts",
      "outputs": [
        {
          "internalType": "address[]",
          "name": "",
          "type": "address[]"
        }
      ],
      "stateMutability": "view",
      "type": "function"
    },
    {
      "inputs": [],
      "name": "piggyCount",
      "outputs": [
        {
          "internalType": "uint256",
          "name": "",
          "type": "uint256"
        }
      ],
      "stateMutability": "view",
      "type": "function"
    },
    {
      "inputs": [
        {
          "internalType": "address",
          "name": "",
          "type": "address"
        },
        {
          "internalType": "uint256",
          "name": "",
          "type": "uint256"
        }
      ],
      "name": "userDeployedContracts",
      "outputs": [
        {
          "internalType": "address",
          "name": "",
          "type": "address"
        }
      ],
      "stateMutability": "view",
      "type": "function"
    }
  ],
  "bytecode": "0x60a0604052348015600f57600080fd5b503373ffffffffffffffffffffffffffffffffffffffff1660808173ffffffffffffffffffffffffffffffffffffffff1681525050608051612474610066600039600081816101e1015261032001526124746000f3fe608060405234801561001057600080fd5b50600436106100625760003560e01c8063349a9d3f146100675780634dec35d9146100975780635f7ad973146100c7578063b747b80a146100e5578063caccd7f714610115578063d57cf60314610133575b600080fd5b610081600480360381019061007c9190610500565b610163565b60405161008e919061054f565b60405180910390f35b6100b160048036038101906100ac91906106b0565b6101b1565b6040516100be919061078b565b60405180910390f35b6100cf61024b565b6040516100dc91906107bc565b60405180910390f35b6100ff60048036038101906100fa91906107d7565b610251565b60405161010c91906108c2565b60405180910390f35b61011d61031e565b60405161012a919061054f565b60405180910390f35b61014d60048036038101906101489190610985565b610342565b60405161015a919061054f565b60405180910390f35b6001602052816000526040600020818154811061017f57600080fd5b906000526020600020016000915091509054906101000a900473ffffffffffffffffffffffffffffffffffffffff1681565b60606000604051806020016101c59061044b565b6020820181038252601f19601f820116604052509050808484337f00000000000000000000000000000000000000000000000000000000000000006040516020016102139493929190610a23565b604051602081830303815290604052604051602001610233929190610aab565b60405160208183030381529060405291505092915050565b60005481565b6060600160008373ffffffffffffffffffffffffffffffffffffffff1673ffffffffffffffffffffffffffffffffffffffff16815260200190815260200160002080548060200260200160405190810160405280929190818152602001828054801561031257602002820191906000526020600020905b8160009054906101000a900473ffffffffffffffffffffffffffffffffffffffff1673ffffffffffffffffffffffffffffffffffffffff16815260200190600101908083116102c8575b50505050509050919050565b7f000000000000000000000000000000000000000000000000000000000000000081565b6000803360005460405160200161035a929190610b38565b60405160208183030381529060405280519060200120905060008081548092919061038490610b93565b91905055506000818451602086016000f59050806103a157600080fd5b600160003373ffffffffffffffffffffffffffffffffffffffff1673ffffffffffffffffffffffffffffffffffffffff168152602001908152602001600020819080600181540180825580915050600190039060005260206000200160009091909190916101000a81548173ffffffffffffffffffffffffffffffffffffffff021916908373ffffffffffffffffffffffffffffffffffffffff1602179055508092505050919050565b61186380610bdc83390190565b6000604051905090565b600080fd5b600080fd5b600073ffffffffffffffffffffffffffffffffffffffff82169050919050565b60006104978261046c565b9050919050565b6104a78161048c565b81146104b257600080fd5b50565b6000813590506104c48161049e565b92915050565b6000819050919050565b6104dd816104ca565b81146104e857600080fd5b50565b6000813590506104fa816104d4565b92915050565b6000806040838503121561051757610516610462565b5b6000610525858286016104b5565b9250506020610536858286016104eb565b9150509250929050565b6105498161048c565b82525050565b60006020820190506105646000830184610540565b92915050565b600080fd5b600080fd5b6000601f19601f8301169050919050565b7f4e487b7100000000000000000000000000000000000000000000000000000000600052604160045260246000fd5b6105bd82610574565b810181811067ffffffffffffffff821117156105dc576105db610585565b5b80604052505050565b60006105ef610458565b90506105fb82826105b4565b919050565b600067ffffffffffffffff82111561061b5761061a610585565b5b61062482610574565b9050602081019050919050565b82818337600083830152505050565b600061065361064e84610600565b6105e5565b90508281526020810184848401111561066f5761066e61056f565b5b61067a848285610631565b509392505050565b600082601f8301126106975761069661056a565b5b81356106a7848260208601610640565b91505092915050565b600080604083850312156106c7576106c6610462565b5b600083013567ffffffffffffffff8111156106e5576106e4610467565b5b6106f185828601610682565b9250506020610702858286016104eb565b9150509250929050565b600081519050919050565b600082825260208201905092915050565b60005b8381101561074657808201518184015260208101905061072b565b60008484015250505050565b600061075d8261070c565b6107678185610717565b9350610777818560208601610728565b61078081610574565b840191505092915050565b600060208201905081810360008301526107a58184610752565b905092915050565b6107b6816104ca565b82525050565b60006020820190506107d160008301846107ad565b92915050565b6000602082840312156107ed576107ec610462565b5b60006107fb848285016104b5565b91505092915050565b600081519050919050565b600082825260208201905092915050565b6000819050602082019050919050565b6108398161048c565b82525050565b600061084b8383610830565b60208301905092915050565b6000602082019050919050565b600061086f82610804565b610879818561080f565b935061088483610820565b8060005b838110156108b557815161089c888261083f565b97506108a783610857565b925050600181019050610888565b5085935050505092915050565b600060208201905081810360008301526108dc8184610864565b905092915050565b600067ffffffffffffffff8211156108ff576108fe610585565b5b61090882610574565b9050602081019050919050565b6000610928610923846108e4565b6105e5565b9050828152602081018484840111156109445761094361056f565b5b61094f848285610631565b509392505050565b600082601f83011261096c5761096b61056a565b5b813561097c848260208601610915565b91505092915050565b60006020828403121561099b5761099a610462565b5b600082013567ffffffffffffffff8111156109b9576109b8610467565b5b6109c584828501610957565b91505092915050565b600081519050919050565b600082825260208201905092915050565b60006109f5826109ce565b6109ff81856109d9565b9350610a0f818560208601610728565b610a1881610574565b840191505092915050565b60006080820190508181036000830152610a3d81876109ea565b9050610a4c60208301866107ad565b610a596040830185610540565b610a666060830184610540565b95945050505050565b600081905092915050565b6000610a858261070c565b610a8f8185610a6f565b9350610a9f818560208601610728565b80840191505092915050565b6000610ab78285610a7a565b9150610ac38284610a7a565b91508190509392505050565b60008160601b9050919050565b6000610ae782610acf565b9050919050565b6000610af982610adc565b9050919050565b610b11610b0c8261048c565b610aee565b82525050565b6000819050919050565b610b32610b2d826104ca565b610b17565b82525050565b6000610b448285610b00565b601482019150610b548284610b21565b6020820191508190509392505050565b7f4e487b7100000000000000000000000000000000000000000000000000000000600052601160045260246000fd5b6000610b9e826104ca565b91507fffffffffffffffffffffffffffffffffffffffffffffffffffffffffffffffff8203610bd057610bcf610b64565b5b60018201905091905056fe608060405234801561001057600080fd5b506040516118633803806118638339818101604052810190610032919061053e565b604051806040016040528073a0b86991c6218b36c1d19d4a2e9eb0ce3606eb4873ffffffffffffffffffffffffffffffffffffffff168152602001600081525060046000806002811115610089576100886105ad565b5b600281111561009b5761009a6105ad565b5b815260200190815260200160002060008201518160000160006101000a81548173ffffffffffffffffffffffffffffffffffffffff021916908373ffffffffffffffffffffffffffffffffffffffff16021790555060208201518160010155905050604051806040016040528073dac17f958d2ee523a2206206994597c13d831ec773ffffffffffffffffffffffffffffffffffffffff16815260200160008152506004600060016002811115610155576101546105ad565b5b6002811115610167576101666105ad565b5b815260200190815260200160002060008201518160000160006101000a81548173ffffffffffffffffffffffffffffffffffffffff021916908373ffffffffffffffffffffffffffffffffffffffff160217905550602082015181600101559050506040518060400160405280736b175474e89094c44da98b954eedeac495271d0f73ffffffffffffffffffffffffffffffffffffffff1681526020016000815250600460006002808111156102205761021f6105ad565b5b6002811115610232576102316105ad565b5b815260200190815260200160002060008201518160000160006101000a81548173ffffffffffffffffffffffffffffffffffffffff021916908373ffffffffffffffffffffffffffffffffffffffff1602179055506020820151816001015590505082600090816102a391906107f3565b508160018190555033600360006101000a81548173ffffffffffffffffffffffffffffffffffffffff021916908373ffffffffffffffffffffffffffffffffffffffff16021790555080600260006101000a81548173ffffffffffffffffffffffffffffffffffffffff021916908373ffffffffffffffffffffffffffffffffffffffff1602179055505050506108c5565b6000604051905090565b600080fd5b600080fd5b600080fd5b600080fd5b6000601f19601f8301169050919050565b7f4e487b7100000000000000000000000000000000000000000000000000000000600052604160045260246000fd5b61039c82610353565b810181811067ffffffffffffffff821117156103bb576103ba610364565b5b80604052505050565b60006103ce610335565b90506103da8282610393565b919050565b600067ffffffffffffffff8211156103fa576103f9610364565b5b61040382610353565b9050602081019050919050565b60005b8381101561042e578082015181840152602081019050610413565b60008484015250505050565b600061044d610448846103df565b6103c4565b9050828152602081018484840111156104695761046861034e565b5b610474848285610410565b509392505050565b600082601f83011261049157610490610349565b5b81516104a184826020860161043a565b91505092915050565b6000819050919050565b6104bd816104aa565b81146104c857600080fd5b50565b6000815190506104da816104b4565b92915050565b600073ffffffffffffffffffffffffffffffffffffffff82169050919050565b600061050b826104e0565b9050919050565b61051b81610500565b811461052657600080fd5b50565b60008151905061053881610512565b92915050565b6000806000606084860312156105575761055661033f565b5b600084015167ffffffffffffffff81111561057557610574610344565b5b6105818682870161047c565b9350506020610592868287016104cb565b92505060406105a386828701610529565b9150509250925092565b7f4e487b7100000000000000000000000000000000000000000000000000000000600052602160045260246000fd5b600081519050919050565b7f4e487b7100000000000000000000000000000000000000000000000000000000600052602260045260246000fd5b6000600282049050600182168061062e57607f821691505b602082108103610641576106406105e7565b5b50919050565b60008190508160005260206000209050919050565b60006020601f8301049050919050565b600082821b905092915050565b6000600883026106a97fffffffffffffffffffffffffffffffffffffffffffffffffffffffffffffffff8261066c565b6106b3868361066c565b95508019841693508086168417925050509392505050565b6000819050919050565b60006106f06106eb6106e6846104aa565b6106cb565b6104aa565b9050919050565b6000819050919050565b61070a836106d5565b61071e610716826106f7565b848454610679565b825550505050565b600090565b610733610726565b61073e818484610701565b505050565b5b818110156107625761075760008261072b565b600181019050610744565b5050565b601f8211156107a75761077881610647565b6107818461065c565b81016020851015610790578190505b6107a461079c8561065c565b830182610743565b50505b505050565b600082821c905092915050565b60006107ca600019846008026107ac565b1980831691505092915050565b60006107e383836107b9565b9150826002028217905092915050565b6107fc826105dc565b67ffffffffffffffff81111561081557610814610364565b5b61081f8254610616565b61082a828285610766565b600060209050601f83116001811461085d576000841561084b578287015190505b61085585826107d7565b8655506108bd565b601f19841661086b86610647565b60005b828110156108935784890151825560018201915060208501945060208101905061086e565b868310156108b057848901516108ac601f8916826107b9565b8355505b6001600288020188555050505b505050505050565b610f8f806108d46000396000f3fe608060405234801561001057600080fd5b50600436106100575760003560e01c8063043ba3321461005c578063279fb6b51461007857806350baa6221461009657806370740aab146100b2578063a24ac275146100d0575b600080fd5b610076600480360381019061007191906109bb565b610101565b005b61008061048a565b60405161008d9190610a0a565b60405180910390f35b6100b060048036038101906100ab9190610a25565b610490565b005b6100ba6108ae565b6040516100c79190610ae2565b60405180910390f35b6100ea60048036038101906100e59190610b29565b61093c565b6040516100f8929190610b97565b60405180910390f35b60028081111561011457610113610bc0565b5b82111561014d576040517f1f5522f600000000000000000000000000000000000000000000000000000000815260040160405180910390fd5b60006004600084600281111561016657610165610bc0565b5b600281111561017857610177610bc0565b5b600281111561018a57610189610bc0565b5b815260200190815260200160002060000160009054906101000a900473ffffffffffffffffffffffffffffffffffffffff169050600082036101f8576040517f85abb5e900000000000000000000000000000000000000000000000000000000815260040160405180910390fd5b600073ffffffffffffffffffffffffffffffffffffffff163373ffffffffffffffffffffffffffffffffffffffff160361025e576040517f8a3cd6be00000000000000000000000000000000000000000000000000000000815260040160405180910390fd5b60008173ffffffffffffffffffffffffffffffffffffffff166370a08231336040518263ffffffff1660e01b81526004016102999190610bef565b602060405180830381865afa1580156102b6573d6000803e3d6000fd5b505050506040513d601f19601f820116820180604052508101906102da9190610c1f565b905082811015610316576040517f50b1f35600000000000000000000000000000000000000000000000000000000815260040160405180910390fd5b600154421115610352576040517f9256004000000000000000000000000000000000000000000000000000000000815260040160405180910390fd5b8173ffffffffffffffffffffffffffffffffffffffff166323b872dd3330866040518463ffffffff1660e01b815260040161038f93929190610c4c565b6020604051808303816000875af11580156103ae573d6000803e3d6000fd5b505050506040513d601f19601f820116820180604052508101906103d29190610cbb565b5082600460008660028111156103eb576103ea610bc0565b5b60028111156103fd576103fc610bc0565b5b600281111561040f5761040e610bc0565b5b8152602001908152602001600020600101600082825461042f9190610d17565b925050819055503073ffffffffffffffffffffffffffffffffffffffff167f5a3e025ad8b0ffc3940134b57218ebd90cfa0ed8a0ec0fdd53be572c480cf2cd8460405161047c9190610a0a565b60405180910390a250505050565b60015481565b3373ffffffffffffffffffffffffffffffffffffffff16600360009054906101000a900473ffffffffffffffffffffffffffffffffffffffff1673ffffffffffffffffffffffffffffffffffffffff1614610520576040517f08c379a000000000000000000000000000000000000000000000000000000000815260040161051790610d97565b60405180910390fd5b60001515600360149054906101000a900460ff16151514610576576040517f08c379a000000000000000000000000000000000000000000000000000000000815260040161056d90610e03565b60405180910390fd5b60028081111561058957610588610bc0565b5b8111156105c2576040517f1f5522f600000000000000000000000000000000000000000000000000000000815260040160405180910390fd5b6000600460008360028111156105db576105da610bc0565b5b60028111156105ed576105ec610bc0565b5b60028111156105ff576105fe610bc0565b5b815260200190815260200160002060000160009054906101000a900473ffffffffffffffffffffffffffffffffffffffff16905060008173ffffffffffffffffffffffffffffffffffffffff166370a08231306040518263ffffffff1660e01b815260040161066e9190610bef565b602060405180830381865afa15801561068b573d6000803e3d6000fd5b505050506040513d601f19601f820116820180604052508101906106af9190610c1f565b9050600081036106eb576040517f50b1f35600000000000000000000000000000000000000000000000000000000815260040160405180910390fd5b6000600f90506000606482846107019190610e23565b61070b9190610e94565b90506000818461071b9190610ec5565b90506001600360146101000a81548160ff0219169083151502179055508473ffffffffffffffffffffffffffffffffffffffff1663a9059cbb33836040518363ffffffff1660e01b8152600401610773929190610b97565b6020604051808303816000875af1158015610792573d6000803e3d6000fd5b505050506040513d601f19601f820116820180604052508101906107b69190610cbb565b508473ffffffffffffffffffffffffffffffffffffffff1663a9059cbb600260009054906101000a900473ffffffffffffffffffffffffffffffffffffffff16846040518363ffffffff1660e01b8152600401610814929190610b97565b6020604051808303816000875af1158015610833573d6000803e3d6000fd5b505050506040513d601f19601f820116820180604052508101906108579190610cbb565b503373ffffffffffffffffffffffffffffffffffffffff167f884edad9ce6fa2440d8a54cc123490eb96d2768479d49ff9c7366125a94243648260405161089e9190610a0a565b60405180910390a2505050505050565b600080546108bb90610f28565b80601f01602080910402602001604051908101604052809291908181526020018280546108e790610f28565b80156109345780601f1061090957610100808354040283529160200191610934565b820191906000526020600020905b81548152906001019060200180831161091757829003601f168201915b505050505081565b60046020528060005260406000206000915090508060000160009054906101000a900473ffffffffffffffffffffffffffffffffffffffff16908060010154905082565b600080fd5b6000819050919050565b61099881610985565b81146109a357600080fd5b50565b6000813590506109b58161098f565b92915050565b600080604083850312156109d2576109d1610980565b5b60006109e0858286016109a6565b92505060206109f1858286016109a6565b9150509250929050565b610a0481610985565b82525050565b6000602082019050610a1f60008301846109fb565b92915050565b600060208284031215610a3b57610a3a610980565b5b6000610a49848285016109a6565b91505092915050565b600081519050919050565b600082825260208201905092915050565b60005b83811015610a8c578082015181840152602081019050610a71565b60008484015250505050565b6000601f19601f8301169050919050565b6000610ab482610a52565b610abe8185610a5d565b9350610ace818560208601610a6e565b610ad781610a98565b840191505092915050565b60006020820190508181036000830152610afc8184610aa9565b905092915050565b60038110610b1157600080fd5b50565b600081359050610b2381610b04565b92915050565b600060208284031215610b3f57610b3e610980565b5b6000610b4d84828501610b14565b91505092915050565b600073ffffffffffffffffffffffffffffffffffffffff82169050919050565b6000610b8182610b56565b9050919050565b610b9181610b76565b82525050565b6000604082019050610bac6000830185610b88565b610bb960208301846109fb565b9392505050565b7f4e487b7100000000000000000000000000000000000000000000000000000000600052602160045260246000fd5b6000602082019050610c046000830184610b88565b92915050565b600081519050610c198161098f565b92915050565b600060208284031215610c3557610c34610980565b5b6000610c4384828501610c0a565b91505092915050565b6000606082019050610c616000830186610b88565b610c6e6020830185610b88565b610c7b60408301846109fb565b949350505050565b60008115159050919050565b610c9881610c83565b8114610ca357600080fd5b50565b600081519050610cb581610c8f565b92915050565b600060208284031215610cd157610cd0610980565b5b6000610cdf84828501610ca6565b91505092915050565b7f4e487b7100000000000000000000000000000000000000000000000000000000600052601160045260246000fd5b6000610d2282610985565b9150610d2d83610985565b9250828201905080821115610d4557610d44610ce8565b5b92915050565b7f4f6e6c79206f776e65722063616e20646f207468697321210000000000000000600082015250565b6000610d81601883610a5d565b9150610d8c82610d4b565b602082019050919050565b60006020820190508181036000830152610db081610d74565b9050919050565b7f5769746864726177616c20686173206265656e20444f4e452121210000000000600082015250565b6000610ded601b83610a5d565b9150610df882610db7565b602082019050919050565b60006020820190508181036000830152610e1c81610de0565b9050919050565b6000610e2e82610985565b9150610e3983610985565b9250828202610e4781610985565b91508282048414831517610e5e57610e5d610ce8565b5b5092915050565b7f4e487b7100000000000000000000000000000000000000000000000000000000600052601260045260246000fd5b6000610e9f82610985565b9150610eaa83610985565b925082610eba57610eb9610e65565b5b828204905092915050565b6000610ed082610985565b9150610edb83610985565b9250828203905081811115610ef357610ef2610ce8565b5b92915050565b7f4e487b7100000000000000000000000000000000000000000000000000000000600052602260045260246000fd5b60006002820490506001821680610f4057607f821691505b602082108103610f5357610f52610ef9565b5b5091905056fea2646970667358221220b7ea48a18e2ee3637eed502acc7d6fd191ee47654552784abe755424292a009764736f6c634300081c0033a2646970667358221220f614e9ec45afec432783ed3457d55de6fafcad221dfa92b0820cb295cc24b2c664736f6c634300081c0033",
  "linkReferences": {},
  "deployedLinkReferences": {}
}